{
  "contractName": "CarRentalPlatform",
  "abi": [
    {
      "inputs": [],
      "stateMutability": "nonpayable",
      "type": "constructor"
    },
    {
      "anonymous": false,
      "inputs": [
        {
          "indexed": true,
          "internalType": "address",
          "name": "walletAddress",
          "type": "address"
        },
        {
          "indexed": false,
          "internalType": "uint256",
          "name": "amount",
          "type": "uint256"
        }
      ],
      "name": "BalanceWithdrawn",
      "type": "event"
    },
    {
      "anonymous": false,
      "inputs": [
        {
          "indexed": true,
          "internalType": "uint256",
          "name": "id",
          "type": "uint256"
        },
        {
          "indexed": false,
          "internalType": "string",
          "name": "name",
          "type": "string"
        },
        {
          "indexed": false,
          "internalType": "string",
          "name": "imgUrl",
          "type": "string"
        },
        {
          "indexed": false,
          "internalType": "uint256",
          "name": "rentFee",
          "type": "uint256"
        },
        {
          "indexed": false,
          "internalType": "uint256",
          "name": "saleFee",
          "type": "uint256"
        }
      ],
      "name": "CarAdded",
      "type": "event"
    },
    {
      "anonymous": false,
      "inputs": [
        {
          "indexed": true,
          "internalType": "uint256",
          "name": "id",
          "type": "uint256"
        },
        {
          "indexed": false,
          "internalType": "string",
          "name": "name",
          "type": "string"
        },
        {
          "indexed": false,
          "internalType": "string",
          "name": "imgUrl",
          "type": "string"
        },
        {
          "indexed": false,
          "internalType": "uint256",
          "name": "rentFee",
          "type": "uint256"
        },
        {
          "indexed": false,
          "internalType": "uint256",
          "name": "saleFee",
          "type": "uint256"
        }
      ],
      "name": "CarMetadataEdited",
      "type": "event"
    },
    {
      "anonymous": false,
      "inputs": [
        {
          "indexed": true,
          "internalType": "uint256",
          "name": "id",
          "type": "uint256"
        },
        {
          "indexed": false,
          "internalType": "enum CarRentalPlatform.Status",
          "name": "status",
          "type": "uint8"
        }
      ],
      "name": "CarStatusEdited",
      "type": "event"
    },
    {
      "anonymous": false,
      "inputs": [
        {
          "indexed": true,
          "internalType": "address",
          "name": "walletAddress",
          "type": "address"
        },
        {
          "indexed": true,
          "internalType": "uint256",
          "name": "carId",
          "type": "uint256"
        }
      ],
      "name": "CheckIn",
      "type": "event"
    },
    {
      "anonymous": false,
      "inputs": [
        {
          "indexed": true,
          "internalType": "address",
          "name": "walletAddress",
          "type": "address"
        },
        {
          "indexed": true,
          "internalType": "uint256",
          "name": "carId",
          "type": "uint256"
        }
      ],
      "name": "CheckOut",
      "type": "event"
    },
    {
      "anonymous": false,
      "inputs": [
        {
          "indexed": true,
          "internalType": "address",
          "name": "walletAddress",
          "type": "address"
        },
        {
          "indexed": false,
          "internalType": "uint256",
          "name": "amount",
          "type": "uint256"
        }
      ],
      "name": "Deposit",
      "type": "event"
    },
    {
      "anonymous": false,
      "inputs": [
        {
          "indexed": true,
          "internalType": "address",
          "name": "walletAddress",
          "type": "address"
        },
        {
          "indexed": false,
          "internalType": "uint256",
          "name": "amount",
          "type": "uint256"
        }
      ],
      "name": "PaymentMade",
      "type": "event"
    },
    {
      "anonymous": false,
      "inputs": [
        {
          "indexed": true,
          "internalType": "address",
          "name": "walletAddress",
          "type": "address"
        },
        {
          "indexed": false,
          "internalType": "string",
          "name": "name",
          "type": "string"
        },
        {
          "indexed": false,
          "internalType": "string",
          "name": "lastname",
          "type": "string"
        }
      ],
      "name": "UserAdded",
      "type": "event"
    },
    {
      "inputs": [
        {
          "internalType": "address",
          "name": "_newOwner",
          "type": "address"
        }
      ],
      "name": "setOwner",
      "outputs": [],
      "stateMutability": "nonpayable",
      "type": "function"
    },
    {
      "inputs": [
        {
          "internalType": "string",
          "name": "name",
          "type": "string"
        },
        {
          "internalType": "string",
          "name": "lastname",
          "type": "string"
        }
      ],
      "name": "addUser",
      "outputs": [],
      "stateMutability": "nonpayable",
      "type": "function"
    },
    {
      "inputs": [
        {
          "internalType": "string",
          "name": "name",
          "type": "string"
        },
        {
          "internalType": "string",
          "name": "url",
          "type": "string"
        },
        {
          "internalType": "uint256",
          "name": "rent",
          "type": "uint256"
        },
        {
          "internalType": "uint256",
          "name": "sale",
          "type": "uint256"
        }
      ],
      "name": "addCar",
      "outputs": [],
      "stateMutability": "nonpayable",
      "type": "function"
    },
    {
      "inputs": [
        {
          "internalType": "uint256",
          "name": "id",
          "type": "uint256"
        },
        {
          "internalType": "string",
          "name": "name",
          "type": "string"
        },
        {
          "internalType": "string",
          "name": "imgUrl",
          "type": "string"
        },
        {
          "internalType": "uint256",
          "name": "rentFee",
          "type": "uint256"
        },
        {
          "internalType": "uint256",
          "name": "saleFee",
          "type": "uint256"
        }
      ],
      "name": "editCarMetadata",
      "outputs": [],
      "stateMutability": "nonpayable",
      "type": "function"
    },
    {
      "inputs": [
        {
          "internalType": "uint256",
          "name": "id",
          "type": "uint256"
        },
        {
          "internalType": "enum CarRentalPlatform.Status",
          "name": "status",
          "type": "uint8"
        }
      ],
      "name": "editCarStatus",
      "outputs": [],
      "stateMutability": "nonpayable",
      "type": "function"
    },
    {
      "inputs": [
        {
          "internalType": "uint256",
          "name": "id",
          "type": "uint256"
        }
      ],
      "name": "checkOut",
      "outputs": [],
      "stateMutability": "nonpayable",
      "type": "function"
    },
    {
      "inputs": [],
      "name": "checkIn",
      "outputs": [],
      "stateMutability": "nonpayable",
      "type": "function"
    },
    {
      "inputs": [],
      "name": "deposit",
      "outputs": [],
      "stateMutability": "payable",
      "type": "function",
      "payable": true
    },
    {
      "inputs": [],
      "name": "makePayment",
      "outputs": [],
      "stateMutability": "nonpayable",
      "type": "function"
    },
    {
      "inputs": [
        {
          "internalType": "uint256",
          "name": "amount",
          "type": "uint256"
        }
      ],
      "name": "withdrawBalance",
      "outputs": [],
      "stateMutability": "nonpayable",
      "type": "function"
    },
    {
      "inputs": [
        {
          "internalType": "uint256",
          "name": "amount",
          "type": "uint256"
        }
      ],
      "name": "withdrawOwnerBalance",
      "outputs": [],
      "stateMutability": "nonpayable",
      "type": "function"
    },
    {
      "inputs": [],
      "name": "getOwner",
      "outputs": [
        {
          "internalType": "address",
          "name": "",
          "type": "address"
        }
      ],
      "stateMutability": "view",
      "type": "function",
      "constant": true
    },
    {
      "inputs": [
        {
          "internalType": "address",
          "name": "walletAddress",
          "type": "address"
        }
      ],
      "name": "getUser",
      "outputs": [
        {
          "components": [
            {
              "internalType": "address",
              "name": "walletAddress",
              "type": "address"
            },
            {
              "internalType": "string",
              "name": "name",
              "type": "string"
            },
            {
              "internalType": "string",
              "name": "lastname",
              "type": "string"
            },
            {
              "internalType": "uint256",
              "name": "rentedCarId",
              "type": "uint256"
            },
            {
              "internalType": "uint256",
              "name": "balance",
              "type": "uint256"
            },
            {
              "internalType": "uint256",
              "name": "debt",
              "type": "uint256"
            },
            {
              "internalType": "uint256",
              "name": "start",
              "type": "uint256"
            }
          ],
          "internalType": "struct CarRentalPlatform.User",
          "name": "",
          "type": "tuple"
        }
      ],
      "stateMutability": "view",
      "type": "function",
      "constant": true
    },
    {
      "inputs": [
        {
          "internalType": "uint256",
          "name": "id",
          "type": "uint256"
        }
      ],
      "name": "getCar",
      "outputs": [
        {
          "components": [
            {
              "internalType": "uint256",
              "name": "id",
              "type": "uint256"
            },
            {
              "internalType": "string",
              "name": "name",
              "type": "string"
            },
            {
              "internalType": "string",
              "name": "imgUrl",
              "type": "string"
            },
            {
              "internalType": "enum CarRentalPlatform.Status",
              "name": "status",
              "type": "uint8"
            },
            {
              "internalType": "uint256",
              "name": "rentFee",
              "type": "uint256"
            },
            {
              "internalType": "uint256",
              "name": "saleFee",
              "type": "uint256"
            }
          ],
          "internalType": "struct CarRentalPlatform.Car",
          "name": "",
          "type": "tuple"
        }
      ],
      "stateMutability": "view",
      "type": "function",
      "constant": true
    },
    {
      "inputs": [
        {
          "internalType": "enum CarRentalPlatform.Status",
          "name": "_status",
          "type": "uint8"
        }
      ],
      "name": "getCarsByStatus",
      "outputs": [
        {
          "components": [
            {
              "internalType": "uint256",
              "name": "id",
              "type": "uint256"
            },
            {
              "internalType": "string",
              "name": "name",
              "type": "string"
            },
            {
              "internalType": "string",
              "name": "imgUrl",
              "type": "string"
            },
            {
              "internalType": "enum CarRentalPlatform.Status",
              "name": "status",
              "type": "uint8"
            },
            {
              "internalType": "uint256",
              "name": "rentFee",
              "type": "uint256"
            },
            {
              "internalType": "uint256",
              "name": "saleFee",
              "type": "uint256"
            }
          ],
          "internalType": "struct CarRentalPlatform.Car[]",
          "name": "",
          "type": "tuple[]"
        }
      ],
      "stateMutability": "view",
      "type": "function",
      "constant": true
    },
    {
      "inputs": [],
      "name": "getCurrentCount",
      "outputs": [
        {
          "internalType": "uint256",
          "name": "",
          "type": "uint256"
        }
      ],
      "stateMutability": "view",
      "type": "function",
      "constant": true
    },
    {
      "inputs": [],
      "name": "getContractBalance",
      "outputs": [
        {
          "internalType": "uint256",
          "name": "",
          "type": "uint256"
        }
      ],
      "stateMutability": "view",
      "type": "function",
      "constant": true
    },
    {
      "inputs": [],
      "name": "getTotalPayments",
      "outputs": [
        {
          "internalType": "uint256",
          "name": "",
          "type": "uint256"
        }
      ],
      "stateMutability": "view",
      "type": "function",
      "constant": true
    }
  ],
  "bytecode": "0x608060405234801561000f575f80fd5b5060015f819055503360025f6101000a81548173ffffffffffffffffffffffffffffffffffffffff021916908373ffffffffffffffffffffffffffffffffffffffff1602179055505f600381905550613ace8061006b5f395ff3fe608060405260043610610108575f3560e01c8063708f29a611610094578063d0e30db011610063578063d0e30db014610344578063d8546f491461034e578063d8d7970014610376578063da76d5cd1461038c578063dd51babf146103b457610108565b8063708f29a61461028c578063893d20e8146102b65780639a43da73146102e0578063ba38ccf61461030857610108565b80633c69c657116100db5780633c69c6571461019a5780634865bed2146101c25780635e8be190146101ea5780636f77926b146102265780636f9fb98a1461026257610108565b8063079eaf341461010c57806313af403514610134578063183ff0851461015c5780631bd2eeee14610172575b5f80fd5b348015610117575f80fd5b50610132600480360381019061012d9190612483565b6103de565b005b34801561013f575f80fd5b5061015a6004803603810190610155919061255b565b6106a2565b005b348015610167575f80fd5b50610170610774565b005b34801561017d575f80fd5b50610198600480360381019061019391906125b9565b610a17565b005b3480156101a5575f80fd5b506101c060048036038101906101bb91906125b9565b610cf6565b005b3480156101cd575f80fd5b506101e860048036038101906101e391906125e4565b610ea6565b005b3480156101f5575f80fd5b50610210600480360381019061020b91906125b9565b611131565b60405161021d9190612820565b60405180910390f35b348015610231575f80fd5b5061024c6004803603810190610247919061255b565b611328565b60405161025991906128ef565b60405180910390f35b34801561026d575f80fd5b50610276611563565b604051610283919061291e565b60405180910390f35b348015610297575f80fd5b506102a06115f9565b6040516102ad919061291e565b60405180910390f35b3480156102c1575f80fd5b506102ca611691565b6040516102d79190612946565b60405180910390f35b3480156102eb575f80fd5b5061030660048036038101906103019190612982565b6116b9565b005b348015610313575f80fd5b5061032e600480360381019061032991906129c0565b611814565b60405161033b9190612b33565b60405180910390f35b61034c611b30565b005b348015610359575f80fd5b50610374600480360381019061036f9190612b53565b611c1e565b005b348015610381575f80fd5b5061038a611dce565b005b348015610397575f80fd5b506103b260048036038101906103ad91906125b9565b61201f565b005b3480156103bf575f80fd5b506103c8612246565b6040516103d5919061291e565b60405180910390f35b6103e733612256565b15610427576040517f08c379a000000000000000000000000000000000000000000000000000000000815260040161041e90612c64565b60405180910390fd5b6040518060e001604052803373ffffffffffffffffffffffffffffffffffffffff16815260200185858080601f0160208091040260200160405190810160405280939291908181526020018383808284375f81840152601f19601f82011690508083019250505050505050815260200183838080601f0160208091040260200160405190810160405280939291908181526020018383808284375f81840152601f19601f8201169050808301925050505050505081526020015f81526020015f81526020015f81526020015f81525060045f3373ffffffffffffffffffffffffffffffffffffffff1673ffffffffffffffffffffffffffffffffffffffff1681526020019081526020015f205f820151815f015f6101000a81548173ffffffffffffffffffffffffffffffffffffffff021916908373ffffffffffffffffffffffffffffffffffffffff160217905550602082015181600101908161058c9190612ea9565b5060408201518160020190816105a29190612ea9565b50606082015181600301556080820151816004015560a0820151816005015560c082015181600601559050503373ffffffffffffffffffffffffffffffffffffffff167f8eab1db142a914aff8b515eedb9177bd7effaef6d714c41e30bdf1520677860760045f3373ffffffffffffffffffffffffffffffffffffffff1673ffffffffffffffffffffffffffffffffffffffff1681526020019081526020015f2060010160045f3373ffffffffffffffffffffffffffffffffffffffff1673ffffffffffffffffffffffffffffffffffffffff1681526020019081526020015f20600201604051610694929190612ff9565b60405180910390a250505050565b60025f9054906101000a900473ffffffffffffffffffffffffffffffffffffffff1673ffffffffffffffffffffffffffffffffffffffff163373ffffffffffffffffffffffffffffffffffffffff1614610731576040517f08c379a00000000000000000000000000000000000000000000000000000000081526004016107289061309e565b60405180910390fd5b8060025f6101000a81548173ffffffffffffffffffffffffffffffffffffffff021916908373ffffffffffffffffffffffffffffffffffffffff16021790555050565b61077d33612256565b6107bc576040517f08c379a00000000000000000000000000000000000000000000000000000000081526004016107b390613106565b60405180910390fd5b5f60045f3373ffffffffffffffffffffffffffffffffffffffff1673ffffffffffffffffffffffffffffffffffffffff1681526020019081526020015f206003015490505f8103610842576040517f08c379a00000000000000000000000000000000000000000000000000000000081526004016108399061316e565b60405180910390fd5b5f60045f3373ffffffffffffffffffffffffffffffffffffffff1673ffffffffffffffffffffffffffffffffffffffff1681526020019081526020015f20600601544261088f91906131b9565b90505f60055f8481526020019081526020015f206004015490506108b382826122ec565b60045f3373ffffffffffffffffffffffffffffffffffffffff1673ffffffffffffffffffffffffffffffffffffffff1681526020019081526020015f206005015f82825461090191906131ec565b925050819055505f60045f3373ffffffffffffffffffffffffffffffffffffffff1673ffffffffffffffffffffffffffffffffffffffff1681526020019081526020015f20600301819055505f60045f3373ffffffffffffffffffffffffffffffffffffffff1673ffffffffffffffffffffffffffffffffffffffff1681526020019081526020015f2060060181905550600260055f8581526020019081526020015f206003015f6101000a81548160ff021916908360028111156109c9576109c8612720565b5b0217905550823373ffffffffffffffffffffffffffffffffffffffff167fa864a8b988e604bb05d6ce75d53efabb5620c45b15380b7bd0c51dcfa71dda0360405160405180910390a3505050565b610a2033612256565b610a5f576040517f08c379a0000000000000000000000000000000000000000000000000000000008152600401610a5690613269565b60405180910390fd5b600280811115610a7257610a71612720565b5b60055f8381526020019081526020015f206003015f9054906101000a900460ff166002811115610aa557610aa4612720565b5b14610ae5576040517f08c379a0000000000000000000000000000000000000000000000000000000008152600401610adc906132d1565b60405180910390fd5b5f60045f3373ffffffffffffffffffffffffffffffffffffffff1673ffffffffffffffffffffffffffffffffffffffff1681526020019081526020015f206003015414610b67576040517f08c379a0000000000000000000000000000000000000000000000000000000008152600401610b5e90613339565b60405180910390fd5b5f60045f3373ffffffffffffffffffffffffffffffffffffffff1673ffffffffffffffffffffffffffffffffffffffff1681526020019081526020015f206005015414610be9576040517f08c379a0000000000000000000000000000000000000000000000000000000008152600401610be0906133a1565b60405180910390fd5b4260045f3373ffffffffffffffffffffffffffffffffffffffff1673ffffffffffffffffffffffffffffffffffffffff1681526020019081526020015f20600601819055508060045f3373ffffffffffffffffffffffffffffffffffffffff1673ffffffffffffffffffffffffffffffffffffffff1681526020019081526020015f2060030181905550600160055f8381526020019081526020015f206003015f6101000a81548160ff02191690836002811115610caa57610ca9612720565b5b0217905550803373ffffffffffffffffffffffffffffffffffffffff167ff65ce03794824579bcd95d8c6743ffc10c4a5e7405fb3876c1abf81453105c4260405160405180910390a350565b60025f9054906101000a900473ffffffffffffffffffffffffffffffffffffffff1673ffffffffffffffffffffffffffffffffffffffff163373ffffffffffffffffffffffffffffffffffffffff1614610d85576040517f08c379a0000000000000000000000000000000000000000000000000000000008152600401610d7c9061309e565b60405180910390fd5b806003541015610dca576040517f08c379a0000000000000000000000000000000000000000000000000000000008152600401610dc19061342f565b60405180910390fd5b5f60025f9054906101000a900473ffffffffffffffffffffffffffffffffffffffff1673ffffffffffffffffffffffffffffffffffffffff1682604051610e109061347a565b5f6040518083038185875af1925050503d805f8114610e4a576040519150601f19603f3d011682016040523d82523d5f602084013e610e4f565b606091505b5050905080610e93576040517f08c379a0000000000000000000000000000000000000000000000000000000008152600401610e8a906134d8565b60405180910390fd5b8160035f82825403925050819055505050565b60025f9054906101000a900473ffffffffffffffffffffffffffffffffffffffff1673ffffffffffffffffffffffffffffffffffffffff163373ffffffffffffffffffffffffffffffffffffffff1614610f35576040517f08c379a0000000000000000000000000000000000000000000000000000000008152600401610f2c9061309e565b60405180910390fd5b610f3f6001612312565b5f610f4a6001612326565b90506040518060c0016040528082815260200188888080601f0160208091040260200160405190810160405280939291908181526020018383808284375f81840152601f19601f82011690508083019250505050505050815260200186868080601f0160208091040260200160405190810160405280939291908181526020018383808284375f81840152601f19601f82011690508083019250505050505050815260200160028081111561100257611001612720565b5b81526020018481526020018381525060055f8381526020019081526020015f205f820151815f0155602082015181600101908161103f9190612ea9565b5060408201518160020190816110559190612ea9565b506060820151816003015f6101000a81548160ff021916908360028111156110805761107f612720565b5b02179055506080820151816004015560a08201518160050155905050807f1d26cfb076fd58c1fa5695bb34e5556995a0aa34ecc601438f9957d6a71439a360055f8481526020019081526020015f2060010160055f8581526020019081526020015f2060020160055f8681526020019081526020015f206004015460055f8781526020019081526020015f206005015460405161112094939291906134f6565b60405180910390a250505050505050565b611139612388565b5f60055f8481526020019081526020015f205f01540361118e576040517f08c379a000000000000000000000000000000000000000000000000000000000815260040161118590613591565b60405180910390fd5b60055f8381526020019081526020015f206040518060c00160405290815f82015481526020016001820180546111c390612cdc565b80601f01602080910402602001604051908101604052809291908181526020018280546111ef90612cdc565b801561123a5780601f106112115761010080835404028352916020019161123a565b820191905f5260205f20905b81548152906001019060200180831161121d57829003601f168201915b5050505050815260200160028201805461125390612cdc565b80601f016020809104026020016040519081016040528092919081815260200182805461127f90612cdc565b80156112ca5780601f106112a1576101008083540402835291602001916112ca565b820191905f5260205f20905b8154815290600101906020018083116112ad57829003601f168201915b50505050508152602001600382015f9054906101000a900460ff1660028111156112f7576112f6612720565b5b600281111561130957611308612720565b5b8152602001600482015481526020016005820154815250509050919050565b6113306123cc565b61133982612256565b611378576040517f08c379a000000000000000000000000000000000000000000000000000000000815260040161136f906135f9565b60405180910390fd5b60045f8373ffffffffffffffffffffffffffffffffffffffff1673ffffffffffffffffffffffffffffffffffffffff1681526020019081526020015f206040518060e00160405290815f82015f9054906101000a900473ffffffffffffffffffffffffffffffffffffffff1673ffffffffffffffffffffffffffffffffffffffff1673ffffffffffffffffffffffffffffffffffffffff16815260200160018201805461142490612cdc565b80601f016020809104026020016040519081016040528092919081815260200182805461145090612cdc565b801561149b5780601f106114725761010080835404028352916020019161149b565b820191905f5260205f20905b81548152906001019060200180831161147e57829003601f168201915b505050505081526020016002820180546114b490612cdc565b80601f01602080910402602001604051908101604052809291908181526020018280546114e090612cdc565b801561152b5780601f106115025761010080835404028352916020019161152b565b820191905f5260205f20905b81548152906001019060200180831161150e57829003601f168201915b505050505081526020016003820154815260200160048201548152602001600582015481526020016006820154815250509050919050565b5f60025f9054906101000a900473ffffffffffffffffffffffffffffffffffffffff1673ffffffffffffffffffffffffffffffffffffffff163373ffffffffffffffffffffffffffffffffffffffff16146115f3576040517f08c379a00000000000000000000000000000000000000000000000000000000081526004016115ea9061309e565b60405180910390fd5b47905090565b5f60025f9054906101000a900473ffffffffffffffffffffffffffffffffffffffff1673ffffffffffffffffffffffffffffffffffffffff163373ffffffffffffffffffffffffffffffffffffffff1614611689576040517f08c379a00000000000000000000000000000000000000000000000000000000081526004016116809061309e565b60405180910390fd5b600354905090565b5f60025f9054906101000a900473ffffffffffffffffffffffffffffffffffffffff16905090565b60025f9054906101000a900473ffffffffffffffffffffffffffffffffffffffff1673ffffffffffffffffffffffffffffffffffffffff163373ffffffffffffffffffffffffffffffffffffffff1614611748576040517f08c379a000000000000000000000000000000000000000000000000000000000815260040161173f9061309e565b60405180910390fd5b5f60055f8481526020019081526020015f205f01540361179d576040517f08c379a000000000000000000000000000000000000000000000000000000000815260040161179490613661565b60405180910390fd5b8060055f8481526020019081526020015f206003015f6101000a81548160ff021916908360028111156117d3576117d2612720565b5b0217905550817fa2038badc9c4004a10f632052c54b0011bb307c2cadc65f22071f61ffd10663382604051611808919061368e565b60405180910390a25050565b60605f806118226001612326565b90505f600190505b81811161189e5784600281111561184457611843612720565b5b60055f8381526020019081526020015f206003015f9054906101000a900460ff16600281111561187757611876612720565b5b0361188b578280611887906136a7565b9350505b8080611896906136a7565b91505061182a565b505f8267ffffffffffffffff8111156118ba576118b9612c82565b5b6040519080825280602002602001820160405280156118f357816020015b6118e0612388565b8152602001906001900390816118d85790505b5090505f92505f600190505b828111611b245785600281111561191957611918612720565b5b60055f8381526020019081526020015f206003015f9054906101000a900460ff16600281111561194c5761194b612720565b5b03611b115760055f8281526020019081526020015f206040518060c00160405290815f820154815260200160018201805461198690612cdc565b80601f01602080910402602001604051908101604052809291908181526020018280546119b290612cdc565b80156119fd5780601f106119d4576101008083540402835291602001916119fd565b820191905f5260205f20905b8154815290600101906020018083116119e057829003601f168201915b50505050508152602001600282018054611a1690612cdc565b80601f0160208091040260200160405190810160405280929190818152602001828054611a4290612cdc565b8015611a8d5780601f10611a6457610100808354040283529160200191611a8d565b820191905f5260205f20905b815481529060010190602001808311611a7057829003601f168201915b50505050508152602001600382015f9054906101000a900460ff166002811115611aba57611ab9612720565b5b6002811115611acc57611acb612720565b5b815260200160048201548152602001600582015481525050828581518110611af757611af66136ee565b5b60200260200101819052508380611b0d906136a7565b9450505b8080611b1c906136a7565b9150506118ff565b50809350505050919050565b611b3933612256565b611b78576040517f08c379a0000000000000000000000000000000000000000000000000000000008152600401611b6f906135f9565b60405180910390fd5b3460045f3373ffffffffffffffffffffffffffffffffffffffff1673ffffffffffffffffffffffffffffffffffffffff1681526020019081526020015f206004015f828254611bc791906131ec565b925050819055503373ffffffffffffffffffffffffffffffffffffffff167fe1fffcc4923d04b559f4d29a8bfc6cda04eb5b0d3c460751c2402c5c5cc9109c34604051611c14919061291e565b60405180910390a2565b60025f9054906101000a900473ffffffffffffffffffffffffffffffffffffffff1673ffffffffffffffffffffffffffffffffffffffff163373ffffffffffffffffffffffffffffffffffffffff1614611cad576040517f08c379a0000000000000000000000000000000000000000000000000000000008152600401611ca49061309e565b60405180910390fd5b5f60055f8981526020019081526020015f205f015403611d02576040517f08c379a0000000000000000000000000000000000000000000000000000000008152600401611cf990613661565b60405180910390fd5b5f60055f8981526020019081526020015f2090505f8787905014611d35578686826001019182611d33929190613725565b505b5f8585905014611d54578484826002019182611d52929190613725565b505b5f831115611d66578281600401819055505b5f821115611d78578181600501819055505b877f10e3e3a462a9f4c167783d47719e646c87b1a773b083fb5eef04a076e887079c826001018360020184600401548560050154604051611dbc94939291906134f6565b60405180910390a25050505050505050565b611dd733612256565b611e16576040517f08c379a0000000000000000000000000000000000000000000000000000000008152600401611e0d906135f9565b60405180910390fd5b5f60045f3373ffffffffffffffffffffffffffffffffffffffff1673ffffffffffffffffffffffffffffffffffffffff1681526020019081526020015f206005015490505f60045f3373ffffffffffffffffffffffffffffffffffffffff1673ffffffffffffffffffffffffffffffffffffffff1681526020019081526020015f206004015490505f8211611ee0576040517f08c379a0000000000000000000000000000000000000000000000000000000008152600401611ed79061383c565b60405180910390fd5b81811015611f23576040517f08c379a0000000000000000000000000000000000000000000000000000000008152600401611f1a906138a4565b60405180910390fd5b8160045f3373ffffffffffffffffffffffffffffffffffffffff1673ffffffffffffffffffffffffffffffffffffffff1681526020019081526020015f206004015f82825403925050819055508160035f828254611f8191906131ec565b925050819055505f60045f3373ffffffffffffffffffffffffffffffffffffffff1673ffffffffffffffffffffffffffffffffffffffff1681526020019081526020015f20600501819055503373ffffffffffffffffffffffffffffffffffffffff167f3a2d0e41c506b136330c6e5e0295ccbf0966daece99bfe7c89020cc01dbfb8d683604051612013919061291e565b60405180910390a25050565b612027612332565b61203033612256565b61206f576040517f08c379a0000000000000000000000000000000000000000000000000000000008152600401612066906135f9565b60405180910390fd5b5f60045f3373ffffffffffffffffffffffffffffffffffffffff1673ffffffffffffffffffffffffffffffffffffffff1681526020019081526020015f20600401549050818110156120f6576040517f08c379a00000000000000000000000000000000000000000000000000000000081526004016120ed9061390c565b60405180910390fd5b8160045f3373ffffffffffffffffffffffffffffffffffffffff1673ffffffffffffffffffffffffffffffffffffffff1681526020019081526020015f206004015f82825403925050819055505f3373ffffffffffffffffffffffffffffffffffffffff16836040516121689061347a565b5f6040518083038185875af1925050503d805f81146121a2576040519150601f19603f3d011682016040523d82523d5f602084013e6121a7565b606091505b50509050806121eb576040517f08c379a00000000000000000000000000000000000000000000000000000000081526004016121e290613974565b60405180910390fd5b3373ffffffffffffffffffffffffffffffffffffffff167fddc398b321237a8d40ac914388309c2f52a08c134e4dc4ce61e32f57cb7d80f184604051612231919061291e565b60405180910390a2505061224361237f565b50565b5f6122516001612326565b905090565b5f8073ffffffffffffffffffffffffffffffffffffffff1660045f8473ffffffffffffffffffffffffffffffffffffffff1673ffffffffffffffffffffffffffffffffffffffff1681526020019081526020015f205f015f9054906101000a900473ffffffffffffffffffffffffffffffffffffffff1673ffffffffffffffffffffffffffffffffffffffff1614159050919050565b5f80603c846122fb91906139bf565b9050828161230991906139ef565b91505092915050565b6001815f015f828254019250508190555050565b5f815f01549050919050565b60025f5403612376576040517f08c379a000000000000000000000000000000000000000000000000000000000815260040161236d90613a7a565b60405180910390fd5b60025f81905550565b60015f81905550565b6040518060c001604052805f815260200160608152602001606081526020015f60028111156123ba576123b9612720565b5b81526020015f81526020015f81525090565b6040518060e001604052805f73ffffffffffffffffffffffffffffffffffffffff16815260200160608152602001606081526020015f81526020015f81526020015f81526020015f81525090565b5f80fd5b5f80fd5b5f80fd5b5f80fd5b5f80fd5b5f8083601f84011261244357612442612422565b5b8235905067ffffffffffffffff8111156124605761245f612426565b5b60208301915083600182028301111561247c5761247b61242a565b5b9250929050565b5f805f806040858703121561249b5761249a61241a565b5b5f85013567ffffffffffffffff8111156124b8576124b761241e565b5b6124c48782880161242e565b9450945050602085013567ffffffffffffffff8111156124e7576124e661241e565b5b6124f38782880161242e565b925092505092959194509250565b5f73ffffffffffffffffffffffffffffffffffffffff82169050919050565b5f61252a82612501565b9050919050565b61253a81612520565b8114612544575f80fd5b50565b5f8135905061255581612531565b92915050565b5f602082840312156125705761256f61241a565b5b5f61257d84828501612547565b91505092915050565b5f819050919050565b61259881612586565b81146125a2575f80fd5b50565b5f813590506125b38161258f565b92915050565b5f602082840312156125ce576125cd61241a565b5b5f6125db848285016125a5565b91505092915050565b5f805f805f80608087890312156125fe576125fd61241a565b5b5f87013567ffffffffffffffff81111561261b5761261a61241e565b5b61262789828a0161242e565b9650965050602087013567ffffffffffffffff81111561264a5761264961241e565b5b61265689828a0161242e565b9450945050604061266989828a016125a5565b925050606061267a89828a016125a5565b9150509295509295509295565b61269081612586565b82525050565b5f81519050919050565b5f82825260208201905092915050565b5f5b838110156126cd5780820151818401526020810190506126b2565b5f8484015250505050565b5f601f19601f8301169050919050565b5f6126f282612696565b6126fc81856126a0565b935061270c8185602086016126b0565b612715816126d8565b840191505092915050565b7f4e487b71000000000000000000000000000000000000000000000000000000005f52602160045260245ffd5b6003811061275e5761275d612720565b5b50565b5f81905061276e8261274d565b919050565b5f61277d82612761565b9050919050565b61278d81612773565b82525050565b5f60c083015f8301516127a85f860182612687565b50602083015184820360208601526127c082826126e8565b915050604083015184820360408601526127da82826126e8565b91505060608301516127ef6060860182612784565b5060808301516128026080860182612687565b5060a083015161281560a0860182612687565b508091505092915050565b5f6020820190508181035f8301526128388184612793565b905092915050565b61284981612520565b82525050565b5f60e083015f8301516128645f860182612840565b506020830151848203602086015261287c82826126e8565b9150506040830151848203604086015261289682826126e8565b91505060608301516128ab6060860182612687565b5060808301516128be6080860182612687565b5060a08301516128d160a0860182612687565b5060c08301516128e460c0860182612687565b508091505092915050565b5f6020820190508181035f830152612907818461284f565b905092915050565b61291881612586565b82525050565b5f6020820190506129315f83018461290f565b92915050565b61294081612520565b82525050565b5f6020820190506129595f830184612937565b92915050565b6003811061296b575f80fd5b50565b5f8135905061297c8161295f565b92915050565b5f80604083850312156129985761299761241a565b5b5f6129a5858286016125a5565b92505060206129b68582860161296e565b9150509250929050565b5f602082840312156129d5576129d461241a565b5b5f6129e28482850161296e565b91505092915050565b5f81519050919050565b5f82825260208201905092915050565b5f819050602082019050919050565b5f60c083015f830151612a295f860182612687565b5060208301518482036020860152612a4182826126e8565b91505060408301518482036040860152612a5b82826126e8565b9150506060830151612a706060860182612784565b506080830151612a836080860182612687565b5060a0830151612a9660a0860182612687565b508091505092915050565b5f612aac8383612a14565b905092915050565b5f602082019050919050565b5f612aca826129eb565b612ad481856129f5565b935083602082028501612ae685612a05565b805f5b85811015612b215784840389528151612b028582612aa1565b9450612b0d83612ab4565b925060208a01995050600181019050612ae9565b50829750879550505050505092915050565b5f6020820190508181035f830152612b4b8184612ac0565b905092915050565b5f805f805f805f60a0888a031215612b6e57612b6d61241a565b5b5f612b7b8a828b016125a5565b975050602088013567ffffffffffffffff811115612b9c57612b9b61241e565b5b612ba88a828b0161242e565b9650965050604088013567ffffffffffffffff811115612bcb57612bca61241e565b5b612bd78a828b0161242e565b94509450506060612bea8a828b016125a5565b9250506080612bfb8a828b016125a5565b91505092959891949750929550565b5f82825260208201905092915050565b7f5573657220616c726561647920657869737473000000000000000000000000005f82015250565b5f612c4e601383612c0a565b9150612c5982612c1a565b602082019050919050565b5f6020820190508181035f830152612c7b81612c42565b9050919050565b7f4e487b71000000000000000000000000000000000000000000000000000000005f52604160045260245ffd5b7f4e487b71000000000000000000000000000000000000000000000000000000005f52602260045260245ffd5b5f6002820490506001821680612cf357607f821691505b602082108103612d0657612d05612caf565b5b50919050565b5f819050815f5260205f209050919050565b5f6020601f8301049050919050565b5f82821b905092915050565b5f60088302612d687fffffffffffffffffffffffffffffffffffffffffffffffffffffffffffffffff82612d2d565b612d728683612d2d565b95508019841693508086168417925050509392505050565b5f819050919050565b5f612dad612da8612da384612586565b612d8a565b612586565b9050919050565b5f819050919050565b612dc683612d93565b612dda612dd282612db4565b848454612d39565b825550505050565b5f90565b612dee612de2565b612df9818484612dbd565b505050565b5b81811015612e1c57612e115f82612de6565b600181019050612dff565b5050565b601f821115612e6157612e3281612d0c565b612e3b84612d1e565b81016020851015612e4a578190505b612e5e612e5685612d1e565b830182612dfe565b50505b505050565b5f82821c905092915050565b5f612e815f1984600802612e66565b1980831691505092915050565b5f612e998383612e72565b9150826002028217905092915050565b612eb282612696565b67ffffffffffffffff811115612ecb57612eca612c82565b5b612ed58254612cdc565b612ee0828285612e20565b5f60209050601f831160018114612f11575f8415612eff578287015190505b612f098582612e8e565b865550612f70565b601f198416612f1f86612d0c565b5f5b82811015612f4657848901518255600182019150602085019450602081019050612f21565b86831015612f635784890151612f5f601f891682612e72565b8355505b6001600288020188555050505b505050505050565b5f8154612f8481612cdc565b612f8e8186612c0a565b9450600182165f8114612fa85760018114612fbe57612ff0565b60ff198316865281151560200286019350612ff0565b612fc785612d0c565b5f5b83811015612fe857815481890152600182019150602081019050612fc9565b808801955050505b50505092915050565b5f6040820190508181035f8301526130118185612f78565b905081810360208301526130258184612f78565b90509392505050565b7f4f6e6c7920746865206f776e65722063616e2063616c6c20746869732066756e5f8201527f6374696f6e210000000000000000000000000000000000000000000000000000602082015250565b5f613088602683612c0a565b91506130938261302e565b604082019050919050565b5f6020820190508181035f8301526130b58161307c565b9050919050565b7f5573657220646f6573206e6f74206578697374210000000000000000000000005f82015250565b5f6130f0601483612c0a565b91506130fb826130bc565b602082019050919050565b5f6020820190508181035f83015261311d816130e4565b9050919050565b7f5573657220686173206e6f742072656e746564206120636172000000000000005f82015250565b5f613158601983612c0a565b915061316382613124565b602082019050919050565b5f6020820190508181035f8301526131858161314c565b9050919050565b7f4e487b71000000000000000000000000000000000000000000000000000000005f52601160045260245ffd5b5f6131c382612586565b91506131ce83612586565b92508282039050818111156131e6576131e561318c565b5b92915050565b5f6131f682612586565b915061320183612586565b92508282019050808211156132195761321861318c565b5b92915050565b7f5573657220646f6573206e6f74206578697374732100000000000000000000005f82015250565b5f613253601583612c0a565b915061325e8261321f565b602082019050919050565b5f6020820190508181035f83015261328081613247565b9050919050565b7f436172206973206e6f7420617661696c61626c6520666f7220757365000000005f82015250565b5f6132bb601c83612c0a565b91506132c682613287565b602082019050919050565b5f6020820190508181035f8301526132e8816132af565b9050919050565b7f5573657220616c72656164792072656e746564206361720000000000000000005f82015250565b5f613323601783612c0a565b915061332e826132ef565b602082019050919050565b5f6020820190508181035f83015261335081613317565b9050919050565b7f557365722068617320616e206f75747374616e64696e672064656274000000005f82015250565b5f61338b601c83612c0a565b915061339682613357565b602082019050919050565b5f6020820190508181035f8301526133b88161337f565b9050919050565b7f496e73756666696369656e7420636f6e74726163742062616c616e636520746f5f8201527f2077697468647261770000000000000000000000000000000000000000000000602082015250565b5f613419602983612c0a565b9150613424826133bf565b604082019050919050565b5f6020820190508181035f8301526134468161340d565b9050919050565b5f81905092915050565b50565b5f6134655f8361344d565b915061347082613457565b5f82019050919050565b5f6134848261345a565b9150819050919050565b7f5472616e666572206661696c65640000000000000000000000000000000000005f82015250565b5f6134c2600e83612c0a565b91506134cd8261348e565b602082019050919050565b5f6020820190508181035f8301526134ef816134b6565b9050919050565b5f6080820190508181035f83015261350e8187612f78565b905081810360208301526135228186612f78565b9050613531604083018561290f565b61353e606083018461290f565b95945050505050565b7f43617220646f6573206e6f7420657869737400000000000000000000000000005f82015250565b5f61357b601283612c0a565b915061358682613547565b602082019050919050565b5f6020820190508181035f8301526135a88161356f565b9050919050565b7f5573657220646f6573206e6f74206578697374000000000000000000000000005f82015250565b5f6135e3601383612c0a565b91506135ee826135af565b602082019050919050565b5f6020820190508181035f830152613610816135d7565b9050919050565b7f436172207769746820676976656e204944206973206e6f7420657869737473005f82015250565b5f61364b601f83612c0a565b915061365682613617565b602082019050919050565b5f6020820190508181035f8301526136788161363f565b9050919050565b61368881612773565b82525050565b5f6020820190506136a15f83018461367f565b92915050565b5f6136b182612586565b91507fffffffffffffffffffffffffffffffffffffffffffffffffffffffffffffffff82036136e3576136e261318c565b5b600182019050919050565b7f4e487b71000000000000000000000000000000000000000000000000000000005f52603260045260245ffd5b5f82905092915050565b61372f838361371b565b67ffffffffffffffff81111561374857613747612c82565b5b6137528254612cdc565b61375d828285612e20565b5f601f83116001811461378a575f8415613778578287013590505b6137828582612e8e565b8655506137e9565b601f19841661379886612d0c565b5f5b828110156137bf5784890135825560018201915060208501945060208101905061379a565b868310156137dc57848901356137d8601f891682612e72565b8355505b6001600288020188555050505b50505050505050565b7f5573657220686173206e6f206465627420746f207061790000000000000000005f82015250565b5f613826601783612c0a565b9150613831826137f2565b602082019050919050565b5f6020820190508181035f8301526138538161381a565b9050919050565b7f557365722068617320696e73756666696369656e742062616c616e63650000005f82015250565b5f61388e601d83612c0a565b91506138998261385a565b602082019050919050565b5f6020820190508181035f8301526138bb81613882565b9050919050565b7f496e73756666696369656e742062616c616e636520746f2077697468647261775f82015250565b5f6138f6602083612c0a565b9150613901826138c2565b602082019050919050565b5f6020820190508181035f830152613923816138ea565b9050919050565b7f5472616e73666572206661696c656400000000000000000000000000000000005f82015250565b5f61395e600f83612c0a565b91506139698261392a565b602082019050919050565b5f6020820190508181035f83015261398b81613952565b9050919050565b7f4e487b71000000000000000000000000000000000000000000000000000000005f52601260045260245ffd5b5f6139c982612586565b91506139d483612586565b9250826139e4576139e3613992565b5b828204905092915050565b5f6139f982612586565b9150613a0483612586565b9250828202613a1281612586565b91508282048414831517613a2957613a2861318c565b5b5092915050565b7f5265656e7472616e637947756172643a207265656e7472616e742063616c6c005f82015250565b5f613a64601f83612c0a565b9150613a6f82613a30565b602082019050919050565b5f6020820190508181035f830152613a9181613a58565b905091905056fea26469706673582212209e0d557f39105e4c0b3390cf18d02a54e7851f3dc70723ba84c70a59b360a74264736f6c63430008140033",
  "immutableReferences": {},
  "source": "// SPDX-License-Identifier: MIT\npragma solidity ^0.8.7;\n\nimport \"../../node_modules/@openzeppelin/contracts/utils/Counters.sol\";\nimport \"../../node_modules/@openzeppelin/contracts/security/ReentrancyGuard.sol\";\n\ncontract CarRentalPlatform is ReentrancyGuard {\n    //DATA\n\n    //Counter\n    using Counters for Counters.Counter;\n    Counters.Counter private _counter;\n\n    //Owner\n    address private owner;\n\n    //totalPayments\n    uint private totalPayments;\n\n    //user struct\n    struct User {\n        address walletAddress;\n        string name;\n        string lastname;\n        uint rentedCarId;\n        uint balance;\n        uint debt;\n        uint start;\n    }\n\n    //car struct\n    struct Car {\n        uint id;\n        string name;\n        string imgUrl;\n        Status status;\n        uint rentFee;\n        uint saleFee;\n    }\n    //enum to indicate the status of the car\n    enum Status {\n        Retired,\n        InUse,\n        Available\n    }\n\n    //events\n    event CarAdded(\n        uint indexed id,\n        string name,\n        string imgUrl,\n        uint rentFee,\n        uint saleFee\n    );\n\n    event CarMetadataEdited(\n        uint indexed id,\n        string name,\n        string imgUrl,\n        uint rentFee,\n        uint saleFee\n    );\n\n    event CarStatusEdited(uint indexed id, Status status);\n\n    event UserAdded(\n        address indexed walletAddress,\n        string name,\n        string lastname\n    );\n\n    event Deposit(address indexed walletAddress, uint amount);\n\n    event CheckOut(address indexed walletAddress, uint indexed carId);\n\n    event CheckIn(address indexed walletAddress, uint indexed carId);\n\n    event PaymentMade(address indexed walletAddress, uint amount);\n\n    event BalanceWithdrawn(address indexed walletAddress, uint amount);\n\n    //user mapping\n    mapping(address => User) private users;\n\n    //car mapping\n    mapping(uint => Car) private cars;\n\n    //constructor\n    constructor() {\n        owner = msg.sender;\n        totalPayments = 0;\n    }\n\n    //MODIFIERS\n    //onlyOwner\n    modifier onlyOwner() {\n        require(msg.sender == owner, \"Only the owner can call this function!\");\n        _;\n    }\n\n    //FUNCTIONS\n    //Execute functions\n\n    //setOwner #onlyOwner\n    function setOwner(address _newOwner) external onlyOwner {\n        owner = _newOwner;\n    }\n\n    //addUser #nonExisting\n    function addUser(string calldata name, string calldata lastname) external {\n        require(!isUser(msg.sender), \"User already exists\");\n        users[msg.sender] = User(msg.sender, name, lastname, 0, 0, 0, 0);\n\n        emit UserAdded(\n            msg.sender,\n            users[msg.sender].name,\n            users[msg.sender].lastname\n        );\n    }\n\n    //addCar #onlyOwner #nonExistingCar\n    function addCar(\n        string calldata name,\n        string calldata url,\n        uint rent,\n        uint sale\n    ) external onlyOwner {\n        _counter.increment();\n        uint counter = _counter.current();\n        cars[counter] = Car(counter, name, url, Status.Available, rent, sale);\n\n        emit CarAdded(\n            counter,\n            cars[counter].name,\n            cars[counter].imgUrl,\n            cars[counter].rentFee,\n            cars[counter].saleFee\n        );\n    }\n\n    //editCarMetadata #onlyOwner #existingCar\n    function editCarMetadata(\n        uint id,\n        string calldata name,\n        string calldata imgUrl,\n        uint rentFee,\n        uint saleFee\n    ) external onlyOwner {\n        require(cars[id].id != 0, \"Car with given ID is not exists\");\n        Car storage car = cars[id];\n        if (bytes(name).length != 0) {\n            car.name = name;\n        }\n        if (bytes(imgUrl).length != 0) {\n            car.imgUrl = imgUrl;\n        }\n        if (rentFee > 0) {\n            car.rentFee = rentFee;\n        }\n        if (saleFee > 0) {\n            car.saleFee = saleFee;\n        }\n\n        emit CarMetadataEdited(\n            id,\n            car.name,\n            car.imgUrl,\n            car.rentFee,\n            car.saleFee\n        );\n    }\n\n    //editCarStatus #onlyOwner #existingCar\n    function editCarStatus(uint id, Status status) external onlyOwner {\n        require(cars[id].id != 0, \"Car with given ID is not exists\");\n        cars[id].status = status;\n\n        emit CarStatusEdited(id, status);\n    }\n\n    //checkOut #existingUser #isCarAvailable #userHasNotRentedCar #userHasNotDebt\n    function checkOut(uint id) external {\n        require(isUser(msg.sender), \"User does not exists!\");\n        require(\n            cars[id].status == Status.Available,\n            \"Car is not available for use\"\n        );\n        require(users[msg.sender].rentedCarId == 0, \"User already rented car\");\n        require(users[msg.sender].debt == 0, \"User has an outstanding debt\");\n\n        users[msg.sender].start = block.timestamp;\n        users[msg.sender].rentedCarId = id;\n        cars[id].status = Status.InUse;\n        emit CheckOut(msg.sender, id);\n    }\n\n    //checkIn #existingUser #userHasRentedCar\n    function checkIn() external {\n        require(isUser(msg.sender), \"User does not exist!\");\n        uint rentedCarId = users[msg.sender].rentedCarId;\n        require(rentedCarId != 0, \"User has not rented a car\");\n\n        uint usedSeconds = block.timestamp - users[msg.sender].start;\n        uint rentFee = cars[rentedCarId].rentFee;\n        users[msg.sender].debt += calculateDebt(usedSeconds, rentFee);\n\n        users[msg.sender].rentedCarId = 0;\n        users[msg.sender].start = 0;\n        cars[rentedCarId].status = Status.Available;\n        emit CheckIn(msg.sender, rentedCarId);\n    }\n\n    //deposit #existingUser\n    function deposit() external payable {\n        require(isUser(msg.sender), \"User does not exist\");\n        users[msg.sender].balance += msg.value;\n\n        emit Deposit(msg.sender, msg.value);\n    }\n\n    //makePayment #existingUser #existingDebt #suffiecientBalance\n    function makePayment() external {\n        require(isUser(msg.sender), \"User does not exist\");\n        uint debt = users[msg.sender].debt;\n        uint balance = users[msg.sender].balance;\n\n        require(debt > 0, \"User has no debt to pay\");\n        require(balance >= debt, \"User has insufficient balance\");\n\n        unchecked {\n            users[msg.sender].balance -= debt;\n        }\n\n        totalPayments += debt;\n        users[msg.sender].debt = 0;\n\n        emit PaymentMade(msg.sender, debt);\n    }\n\n    //withDrawBalance #existingUser\n    function withdrawBalance(uint amount) external nonReentrant {\n        require(isUser(msg.sender), \"User does not exist\");\n        uint balance = users[msg.sender].balance;\n        require(balance >= amount, \"Insufficient balance to withdraw\");\n\n        unchecked {\n            users[msg.sender].balance -= amount;\n        }\n\n        (bool success, ) = msg.sender.call{value: amount}(\"\");\n        require(success, \"Transfer failed\");\n\n        emit BalanceWithdrawn(msg.sender, amount);\n    }\n\n    //withDrawOwnerBalance #onlyOwner\n    function withdrawOwnerBalance(uint amount) external onlyOwner {\n        require(\n            totalPayments >= amount,\n            \"Insufficient contract balance to withdraw\"\n        );\n        (bool success, ) = owner.call{value: amount}(\"\");\n        require(success, \"Tranfer failed\");\n\n        unchecked {\n            totalPayments -= amount;\n        }\n    }\n\n    //QUERY FUNCTIONS\n    //getOwner\n    function getOwner() external view returns (address) {\n        return owner;\n    }\n\n    //isUser\n    function isUser(address walletAddress) private view returns (bool) {\n        return users[walletAddress].walletAddress != address(0);\n    }\n\n    //getUser #existingUser\n    function getUser(\n        address walletAddress\n    ) external view returns (User memory) {\n        require(isUser(walletAddress), \"User does not exist\");\n        return users[walletAddress];\n    }\n\n    //getCar #existingCar\n    function getCar(uint id) external view returns (Car memory) {\n        require(cars[id].id != 0, \"Car does not exist\");\n        return cars[id];\n    }\n\n    //getCarByStatus\n    function getCarsByStatus(\n        Status _status\n    ) external view returns (Car[] memory) {\n        uint count = 0;\n        uint length = _counter.current();\n        for (uint i = 1; i <= length; i++) {\n            if (cars[i].status == _status) {\n                count++;\n            }\n        }\n        Car[] memory carsWithStatus = new Car[](count);\n        count = 0;\n        for (uint i = 1; i <= length; i++) {\n            if (cars[i].status == _status) {\n                carsWithStatus[count] = cars[i];\n                count++;\n            }\n        }\n\n        return carsWithStatus;\n    }\n\n    //calculateDebt\n\n    function calculateDebt(\n        uint usedSeconds,\n        uint rentFee\n    ) private pure returns (uint) {\n        uint usedMinutes = usedSeconds / 60;\n        return usedMinutes * rentFee;\n    }\n\n    //getCurrentCount\n    function getCurrentCount() external view returns (uint) {\n        return _counter.current();\n    }\n\n    //getContractBalance #onlyOwner\n    function getContractBalance() external view onlyOwner returns (uint) {\n        return address(this).balance;\n    }\n\n    //getTotalPayment #onlyOwner\n    function getTotalPayments() external view onlyOwner returns (uint) {\n        return totalPayments;\n    }\n}\n",
  "sourcePath": "/Users/tolgazorlu/office/car-rental/contracts/bsc/CarRentalPlatform.sol",
  "compiler": {
    "name": "solc",
    "version": "0.8.20+commit.a1b79de6.Emscripten.clang"
  },
  "schemaVersion": "3.4.14",
  "updatedAt": "2023-06-15T14:36:01.407Z",
  "networkType": "ethereum",
  "devdoc": {
    "kind": "dev",
    "methods": {},
    "version": 1
  },
  "userdoc": {
    "kind": "user",
    "methods": {},
    "version": 1
  }
}